:020000040000FA
:04000000F0EF04F029
:100600000000016E0150EC0F016E46EF03F0836AAB
:1006100089EF03F0010E836E89EF03F0020E836E03
:1006200089EF03F0030E836E89EF03F0040E836EEF
:1006300089EF03F0050E836E89EF03F0060E836EDB
:1006400089EF03F0070E836E89EF03F0080E836EC7
:1006500089EF03F0090E836E89EF03F00A0E836EB3
:1006600089EF03F00B0E836E89EF03F00C0E836E9F
:1006700089EF03F00D0E836E89EF03F00E0E836E8B
:1006800089EF03F00F0E836E89EF03F00150000A2B
:10069000D8B407EF03F0010AD8B40AEF03F0030A55
:1006A000D8B40EEF03F0010AD8B412EF03F0070A32
:1006B000D8B416EF03F0010AD8B41AEF03F0030A16
:1006C000D8B41EEF03F0010AD8B422EF03F00F0AEA
:1006D000D8B426EF03F0010AD8B42AEF03F0030AD6
:1006E000D8B42EEF03F0010AD8B432EF03F0070AB2
:1006F000D8B436EF03F0010AD8B43AEF03F0030A96
:10070000D8B43EEF03F0010AD8B442EF03F089EF0A
:1007100003F0060E83648FEF03F091EF03F094EF84
:1007200003F0828095EF03F082901200066A04BE07
:100730009EEF03F09CEF03F0A4EF03F0036C041EA4
:10074000D8B0042A010E066E02BEABEF03F0A9EF8B
:1007500003F0B1EF03F0016C021ED8B0022A010EC3
:10076000061A000E086E000E076E03500410D8B46F
:10077000BCEF03F0BEEF03F0E6EF03F0010E056EF1
:10078000C6EF03F0D89003360436052A04AECBEF4B
:1007900003F0CDEF03F0C2EF03F0D8900736083630
:1007A0000350015C04500258D8A0D9EF03F0DBEFEE
:1007B00003F0E0EF03F00350015E0450025A07809B
:1007C000D89004320332052ECDEF03F00650D8B492
:1007D000ECEF03F0EEEF03F0F2EF03F0076C081E0E
:1007E000D8B0082A07C001F008C002F012000F0EAE
:1007F000C16E600ED36E9282956A836A94908290E5
:10080000000E176E000E166E9FEC04F0156E22EFB0
:1008100004F00F0E836E020E126E450E116EAA0EBC
:10082000E82EFED7112EFCD7122EFAD7836A020EBD
:10083000126E450E116EAA0EE82EFED7112EFCD7B1
:10084000122EFAD71550D8B428EF04F02AEF04F08E
:1008500009EF04F048EC04F009C013F00AC014F0EA
:10086000030E126E8A0E116E560EE82EFED7112E52
:10087000FCD7122EFAD748EC04F009C016F00AC0D3
:1008800017F0165001EC03F02AEF04F000EF00F02F
:100890009FEC04F0CC0ECCEC04F0440ECCEC04F055
:1008A000040E0C6ECF0E0B6E020EE82EFED70B2E32
:1008B000FCD70C2EFAD79FEC04F0CC0ECCEC04F055
:1008C000BE0ECCEC04F083EC04F00F6E83EC04F06D
:1008D000106E0F5010C00BF00C6A0BC00CF00B6ABE
:1008E0000B100D6E0C500E6E0DC001F00EC002F01C
:1008F000000E046E100E036E96EC03F001C009F0BA
:1009000002C00AF01200046A056A05C002F0DEECBB
:1009100004F0036E022A8FEF04F0D8900336022E03
:100920008DEF04F003500412052A070E05649BEFB7
:1009300004F09DEF04F085EF04F004501200929251
:100940008992A00EE82EFED79282170EE82EFED7CF
:10095000000080A2AEEF04F0B1EF04F0010EB2EFA0
:1009600004F0000E016E880EE82EFED700D0015074
:100970001200016E9292899200D00150D8B4C3EF58
:1009800004F0C5EF04F0C6EF04F09282140EE82ED6
:10099000FED7928200001200026E036A0250010B21
:1009A000B9EC04F0D8900232032A070E0364DBEF9F
:1009B00004F0DDEF04F0CEEF04F012009292899281
:1009C00000D0928200D000D000D000D0000E80B2C3
:1009D000010E016E100EE82EFED700D0015012005D
:0A09E000000EF86E0001F7EF03F0BF
:020000040020DA
:08000000FFFFFFFFFFFFFFFF00
:020000040030CA
:0E000000FF081F1EFF8181FF0FC00FE00F40A1
:00000001FF
